{
  "contractName": "NameStore",
  "abi": [
    {
      "anonymous": false,
      "inputs": [
        {
          "indexed": true,
          "internalType": "address",
          "name": "account",
          "type": "address"
        },
        {
          "indexed": false,
          "internalType": "string",
          "name": "newName",
          "type": "string"
        },
        {
          "indexed": false,
          "internalType": "string",
          "name": "oldName",
          "type": "string"
        }
      ],
      "name": "NameChanged",
      "type": "event"
    },
    {
      "inputs": [
        {
          "internalType": "address",
          "name": "account",
          "type": "address"
        }
      ],
      "name": "readName",
      "outputs": [
        {
          "internalType": "string",
          "name": "",
          "type": "string"
        }
      ],
      "stateMutability": "view",
      "type": "function",
      "constant": true
    },
    {
      "inputs": [
        {
          "internalType": "string",
          "name": "_name",
          "type": "string"
        }
      ],
      "name": "setName",
      "outputs": [],
      "stateMutability": "nonpayable",
      "type": "function"
    }
  ],
  "bytecode": "0x608060405234801561001057600080fd5b50610810806100206000396000f3fe608060405234801561001057600080fd5b50600436106100365760003560e01c8063806df9591461003b578063c47f002714610064575b600080fd5b61004e6100493660046105ef565b610079565b60405161005b9190610718565b60405180910390f35b61007761007236600461061f565b610125565b005b6001600160a01b03811660009081526020819052604090208054606091906100a090610789565b80601f01602080910402602001604051908101604052809291908181526020018280546100cc90610789565b80156101195780601f106100ee57610100808354040283529160200191610119565b820191906000526020600020905b8154815290600101906020018083116100fc57829003601f168201915b50505050509050919050565b80600060018161013484610501565b81526020810191909152604001600020546001600160a01b0316146101955760405162461bcd60e51b81526020600482015260126024820152714e616d65206973206e6f7420756e6971756560701b60448201526064015b60405180910390fd5b6101ae8260405180602001604052806000815250610531565b6101f15760405162461bcd60e51b81526020600482015260146024820152734e616d652063616e6e6f7420626520656d70747960601b604482015260640161018c565b336000908152602081905260409020805461029491849161021190610789565b80601f016020809104026020016040519081016040528092919081815260200182805461023d90610789565b801561028a5780601f1061025f5761010080835404028352916020019161028a565b820191906000526020600020905b81548152906001019060200180831161026d57829003601f168201915b5050505050610531565b6102ea5760405162461bcd60e51b815260206004820152602160248201527f496e707574206973207468652073616d652061732073746f7265642076616c756044820152606560f81b606482015260840161018c565b336000908152602081905260408120805461030490610789565b80601f016020809104026020016040519081016040528092919081815260200182805461033090610789565b801561037d5780601f106103525761010080835404028352916020019161037d565b820191906000526020600020905b81548152906001019060200180831161036057829003601f168201915b5050336000908152602081905260408120805495965090946001945085935061042d92506103aa90610789565b80601f01602080910402602001604051908101604052809291908181526020018280546103d690610789565b80156104235780601f106103f857610100808354040283529160200191610423565b820191906000526020600020905b81548152906001019060200180831161040657829003601f168201915b5050505050610501565b81526020808201929092526040908101600090812080546001600160a01b0319166001600160a01b039590951694909417909355338352828252909120845161047892860190610556565b50336001600061048786610501565b815260200190815260200160002060006101000a8154816001600160a01b0302191690836001600160a01b03160217905550336001600160a01b03167fe6e8eb0d08ce8b2cbce2a34f6868471e13d0980f216d8f1cd54270fdfdcded8384836040516104f492919061072b565b60405180910390a2505050565b60008160405160200161051491906106fc565b604051602081830303815290604052805190602001209050919050565b600061054e83838051602091820120825192909101919091201490565b159392505050565b82805461056290610789565b90600052602060002090601f01602090048101928261058457600085556105ca565b82601f1061059d57805160ff19168380011785556105ca565b828001600101855582156105ca579182015b828111156105ca5782518255916020019190600101906105af565b506105d69291506105da565b5090565b5b808211156105d657600081556001016105db565b60006020828403121561060157600080fd5b81356001600160a01b038116811461061857600080fd5b9392505050565b60006020828403121561063157600080fd5b813567ffffffffffffffff8082111561064957600080fd5b818401915084601f83011261065d57600080fd5b81358181111561066f5761066f6107c4565b604051601f8201601f19908116603f01168101908382118183101715610697576106976107c4565b816040528281528760208487010111156106b057600080fd5b826020860160208301376000928101602001929092525095945050505050565b600081518084526106e8816020860160208601610759565b601f01601f19169290920160200192915050565b6000825161070e818460208701610759565b9190910192915050565b60208152600061061860208301846106d0565b60408152600061073e60408301856106d0565b828103602084015261075081856106d0565b95945050505050565b60005b8381101561077457818101518382015260200161075c565b83811115610783576000848401525b50505050565b600181811c9082168061079d57607f821691505b602082108114156107be57634e487b7160e01b600052602260045260246000fd5b50919050565b634e487b7160e01b600052604160045260246000fdfea2646970667358221220bc186d756adb86652617b6ccbbd09d002c3db40d8bad387b3bdee166099bf8e764736f6c63430008060033",
  "immutableReferences": {},
  "source": "// SPDX-License-Identifier: MIT\npragma solidity =0.8.6;\n\nlibrary Strings {\n    function isEqual(string memory a, string memory b) internal pure returns(bool) {\n        return keccak256(bytes(a)) == keccak256(bytes(b));\n    }\n\n    function isNotEqual(string memory a, string memory b) internal pure returns(bool) {\n        return !isEqual(a, b);\n    }\n\n    function hash(string memory word) internal pure returns(bytes32) {\n        return keccak256(abi.encodePacked(word));\n    }\n}\n\ncontract NameStore {\n    mapping(address => string) private names;\n    mapping(bytes32 => address) private nameIndex;\n\n    event NameChanged(address indexed account, string newName, string oldName);\n\n    modifier uniqueName(string memory word) {\n        require(nameIndex[Strings.hash(word)] == address(0), 'Name is not unique');\n        _;\n    }\n\n    function readName(address account) external view returns (string memory) {\n        return names[account];\n    }\n\n    function setName(string memory _name) external uniqueName(_name) {\n        require(Strings.isNotEqual(_name, ''), 'Name cannot be empty');\n        require(Strings.isNotEqual(_name, names[msg.sender]), 'Input is the same as stored value');\n\n        // Remember old name for event trigger\n        string memory oldName = names[msg.sender];\n\n        // Reset old Index\n        nameIndex[Strings.hash(names[msg.sender])] = address(0);\n\n        // Set new name\n        names[msg.sender] = _name;\n        nameIndex[Strings.hash(_name)] = msg.sender;\n        \n        emit NameChanged(msg.sender, _name, oldName);\n    }\n\n}",
  "sourcePath": "/mnt/projects/blockpay/contracts/contracts/NameStore.sol",
  "compiler": {
    "name": "solc",
    "version": "0.8.6+commit.11564f7e.Emscripten.clang"
  },
  "schemaVersion": "3.3.3",
  "updatedAt": "2021-10-20T08:54:30.693Z",
  "networkType": "ethereum",
  "devdoc": {
    "kind": "dev",
    "methods": {},
    "version": 1
  },
  "userdoc": {
    "kind": "user",
    "methods": {},
    "version": 1
  }
}